:100000000C945D000C9485000C9485000C94850084
:100010000C9485000C9485000C9485000C9485004C
:100020000C9485000C9485000C9485000C9485003C
:100030000C9485000C9485000C9485000C9485002C
:100040000C94E2020C9485000C9452030C942C0343
:100050000C9485000C9485000C9485000C9485000C
:100060000C9485000C9485000000000024002700FB
:100070002A0000000000250028002B0004040404CE
:100080000404040402020202020203030303030342
:10009000010204081020408001020408102001021F
:1000A00004081020000000080002010000030407FB
:1000B00000000000000000004B0511241FBECFEF20
:1000C000D8E0DEBFCDBF21E0A6E3B1E001C01D92C4
:1000D000A03EB207E1F711E0A0E0B1E0EAE1F0E113
:1000E00002C005900D92A633B107D9F710E0CDE517
:1000F000D0E004C02197FE010E94F705CC35D1075E
:10010000C9F70E9484030C940B080C94000090E043
:10011000FC01EC55FF4F2491FC01E057FF4F349157
:10012000FC01E458FF4FE491EE23C9F0222339F09B
:10013000233001F1A8F4213019F1223029F1F0E047
:10014000EE0FFF1FEE58FF4FA591B4918FB7F894B3
:10015000EC91611126C030953E233C938FBF0895EA
:100160002730A9F02830C9F0243049F78091800069
:100170008F7D03C0809180008F7780938000DFCFD8
:1001800084B58F7784BDDBCF84B58F7DFBCF809125
:10019000B0008F778093B000D2CF8091B0008F7D78
:1001A000F9CF3E2BDACFAF92BF92CF92DF92EF9290
:1001B000FF920F931F93CF93DF936C017B018B0111
:1001C000040F151FEB015E01AE18BF08C017D10761
:1001D00059F06991D601ED91FC910190F081E02DEB
:1001E000C6010995892B79F7C501DF91CF911F9140
:1001F0000F91FF90EF90DF90CF90BF90AF90089558
:10020000FC01538D448D252F30E0842F90E0821B1C
:10021000930B541710F0CF96089501970895FC01A1
:10022000918D828D981761F0A28DAE0FBF2FB11DF9
:100230005D968C91928D9F5F9F73928F90E0089551
:100240008FEF9FEF08952FB7F89480913B01909125
:100250003C01A0913D01B0913E012FBF8093470129
:1002600090934801A0934901B0934A018FE391E034
:100270000E940F0197FF26C02FB7F89480913B0191
:1002800090913C01A0913D01B0913E012FBF409162
:100290004701509148016091490170914A01841BC6
:1002A000950BA60BB70B409143015091440160910F
:1002B00045017091460184179507A607B707B0F26C
:1002C0008FEF9FEF0895FC01918D828D981731F08B
:1002D000828DE80FF11D858D90E008958FEF9FEFDF
:1002E0000895FC01918D228D892F90E0805C9F4FB5
:1002F000821B91098F73992708958FE391E00E94E3
:10030000710121E0892B09F420E0822F089580E01B
:1003100090E0892B29F00E947D0181110C9400004E
:100320000895FC01A48DA80FB92FB11DA35ABF4F8A
:100330002C91848D90E001968F739927848FA689E4
:10034000B7892C93A089B1898C91837080648C9338
:10035000938D848D981306C00288F389E02D8081E7
:100360008F7D80830895EF92FF920F931F93CF9319
:10037000DF93EC0181E0888F9B8D8C8D98131AC0E0
:10038000E889F989808185FF15C09FB7F894EE89C7
:10039000FF896083E889F989808183708064808324
:1003A0009FBF81E090E0DF91CF911F910F91FF906F
:1003B000EF900895F62E0B8D10E00F5F1F4F0F7317
:1003C0001127E02E8C8D8E110CC00FB607FCFACFD2
:1003D000E889F989808185FFF5CFCE010E949101DE
:1003E000F1CFEB8DEC0FFD2FF11DE35AFF4FF082A3
:1003F0009FB7F8940B8FEA89FB8980818062CFCF09
:10040000CF93DF93EC01888D8823B9F0AA89BB894B
:10041000E889F9898C9185FD03C0808186FD0DC036
:100420000FB607FCF7CF8C9185FFF2CF808185FF57
:10043000EDCFCE010E949101E9CFDF91CF910895D8
:10044000FC0180819181009711F00C949906089528
:100450000F931F93CF93DF93EC01888199810097CD
:1004600059F02A813B812617370730F081E0DF9170
:10047000CF911F910F9108958B016F5F7F4F0E9465
:100480002207009759F0998388831B830A832C8164
:100490003D81232B59F7FC011082E8CF80E0E7CFA4
:1004A000EF92FF920F931F93CF93DF93EC017B01A9
:1004B0008A01BA010E94280228813981811114C061
:1004C0002115310519F0C9010E9499061982188277
:1004D0001D821C821B821A82CE01DF91CF911F9157
:1004E0000F91FF90EF9008951D830C83B701C90110
:1004F0000E940408F1CFAF92BF92CF92DF92EF92A9
:10050000FF920F931F93CF93DF93EC016B015A017E
:1005100079012417350720F48B2D5901E42EF82E8C
:10052000198218821B821A821D821C8250E040E0D0
:1005300065E371E0CE010E945002D60114960D9140
:100540001C91A016B10628F5E016F10608F4870103
:10055000D601ED91FC911197E00FF11FF080108210
:100560006D917C916A0D7B1D61157105F1F0FB01A8
:1005700001900020E9F73197AF01461B570BCE01E0
:100580000E945002F60180819181080F191FD80145
:10059000FC92CE01DF91CF911F910F91FF90EF90D0
:1005A000DF90CF90BF90AF90089588819981009798
:1005B00011F00E949906198218821D821C821B82EA
:1005C0001A82E0CF1F920F920FB60F9211242F9331
:1005D0003F938F939F93AF93BF9380913B019091F3
:1005E0003C01A0913D01B0913E0130913A0123E0E0
:1005F000230F2D3758F50196A11DB11D20933A0107
:1006000080933B0190933C01A0933D01B0933E0148
:100610008091360190913701A0913801B091390154
:100620000196A11DB11D8093360190933701A093CF
:100630003801B0933901BF91AF919F918F913F9154
:100640002F910F900FBE0F901F90189526E8230F43
:100650000296A11DB11DD2CF1F920F920FB60F921D
:1006600011242F933F934F935F936F937F938F93B7
:100670009F93AF93BF93EF93FF938FE391E00E941B
:100680009101FF91EF91BF91AF919F918F917F91D8
:100690006F915F914F913F912F910F900FBE0F90EF
:1006A0001F9018951F920F920FB60F9211242F933F
:1006B0008F939F93EF93FF93E0914F01F09150013F
:1006C0008081E0915501F091560182FD1BC090811F
:1006D000809158018F5F8F7320915901821741F0EB
:1006E000E0915801F0E0E15CFE4F958F8093580156
:1006F000FF91EF919F918F912F910F900FBE0F90CF
:100700001F9018958081F4CFCF93DF93CDB7DEB7DC
:1007100062970FB6F894DEBF0FBECDBF789484B554
:10072000826084BD84B5816084BD85B5826085BDED
:1007300085B5816085BD80916E00816080936E007B
:10074000109281008091810082608093810080916D
:10075000810081608093810080918000816080931E
:1007600080008091B10084608093B1008091B000DE
:1007700081608093B00080917A00846080937A00D9
:1007800080917A00826080937A0080917A00816003
:1007900080937A0080917A00806880937A0010922A
:1007A000C100E0914F01F091500182E08083E0911F
:1007B0004B01F0914C011082E0914D01F0914E01FE
:1007C0008FEC808310925701E0915301F091540116
:1007D00086E08083E0915101F09152018081806137
:1007E0008083E0915101F091520180818860808383
:1007F000E0915101F0915201808180688083E09105
:100800005101F091520180818F7D808308E111E0D8
:1008100028E2E22E21E0F22EF801819191918F01E0
:100820009C013327F901E057FF4F449124583F4F73
:10083000F9012491222399F030E0220F331FF901AE
:10084000E859FF4FA591B491F901EE58FF4F25915A
:1008500034912FB7F894EC914E2B4C932FBF60E05E
:100860000E948700E016F106B9F680E0A82E80E02D
:10087000B82E8FE391E00E947101181619060CF052
:10088000FEC01E861D86188A1F861A8A198A50E0A5
:1008900040E065E371E0CE010D960E9450020E9497
:1008A000230109891A8997FD1CC08A309105C9F076
:1008B00089831A820F5F1F4FB801CE010D960E94E7
:1008C0002802882361F32D853E8589899A89BE0196
:1008D0006F5F7F4F820F931F0E9404081A8B098B52
:1008E000DECFCD84DE84C114D10429F07601011558
:1008F000110509F04CC089899A89892B09F4BBC07C
:100900000D851E856CE270E0C8010E94F00700971B
:1009100009F4B1C09C01201B310B8901121613068A
:100920000CF0A9C050E040E0BE01635F7F4FCE01F4
:1009300007960E947B028F819885C12CD12C76016D
:10094000009719F00E9478056B0129893A89A8015E
:100950004F5F5F4FBE01635F7F4FCE0101960E94E4
:100960007B0209811A810115110509F446C0F801BD
:1009700081918F01882309F440C0082E000C990B47
:100980000E94DF07F80131978083F1CF740147019E
:10099000FFEF8F1A9F0AF7018081082E000C990B38
:1009A0000E94B405892B91F7015011090C0D1D1DF2
:1009B000F8018081082E000C990B0E94B405892B48
:1009C00031F00E151F0518F001501109F1CFA801E3
:1009D0004F5F5F4F4E195F095A8B498BCE14DF046E
:1009E00020F4B701C6010E94E707ED85FE858989DD
:1009F0009A89E80FF91F10827ECF8D819E81892B05
:100A000091F009811A8168E271E0C8010E94FB0738
:100A100061E0892B49F06DE271E0C8010E94FB079B
:100A200061E0892B09F060E0C60102970897D8F4CD
:100A30008C2D0E94870043E050E06FE271E08FE36D
:100A400091E00E94D30049895A896D857E858FE3A4
:100A500091E00E94D30042E050E063E371E08FE355
:100A600091E00E94D300CE0101960E942002CE01A7
:100A700007960E942002CE010D960E942002A1142A
:100A8000B10409F4F6CE0E947D01882309F4F1CE69
:100A90000E940000EECEEFE3F1E01382128288EEB6
:100AA00093E0A0E0B0E084839583A683B7838AE0D7
:100AB00091E09183808385EC90E09587848784EC36
:100AC00090E09787868780EC90E0918B808B81EC1B
:100AD00090E0938B828B82EC90E0958B848B86ECFC
:100AE00090E0978B868B118E128E138E148E089544
:100AF0001F93FC0199278827BC01E89411911032BB
:100B0000E9F3193010F01E30C8F31B3251F01D32DA
:100B100049F4689406C00E949F05610F711D811DF4
:100B2000911D119110531A30B0F33EF490958095B9
:100B3000709561957F4F8F4F9F4F1F910895592F4B
:100B4000482F372F262F660F771F881F991F660F94
:100B5000771F881F991F620F731F841F951F660FD1
:100B6000771F881F991F089591110C94BD0580323D
:100B700019F089508550C8F7089599278827089556
:100B80002F923F924F925F926F927F928F929F929D
:100B9000AF92BF92CF92DF92EF92FF920F931F938B
:100BA000CF93DF93CDB7DEB7CA1BDB0B0FB6F8943C
:100BB000DEBF0FBECDBF09942A88398848885F847C
:100BC0006E847D848C849B84AA84B984C884DF80ED
:100BD000EE80FD800C811B81AA81B981CE0FD11DD1
:100BE0000FB6F894DEBF0FBECDBFED010895EE0F36
:100BF000FF1F0590F491E02D09940F931F93CF935D
:100C0000DF938230910510F482E090E0E091DE0104
:100C1000F091DF0130E020E0B0E0A0E0309799F4FF
:100C20002115310509F44AC0281B390B2430310540
:100C3000D8F58A819B816115710589F1FB01938348
:100C40008283FE0111C040815181028113814817C6
:100C50005907E0F04817590799F4109761F0129678
:100C60000C93129713961C933296CF01DF91CF917C
:100C70001F910F9108950093DE011093DF01F4CFCF
:100C80002115310551F04217530738F0A901DB0156
:100C90009A01BD01DF01F801C1CFEF01F9CF9093B7
:100CA000DF018093DE01CDCFFE01E20FF31F8193C0
:100CB00091932250310939832883D7CF2091DC01C9
:100CC0003091DD01232B41F4209102013091030189
:100CD0003093DD012093DC0120910001309101016E
:100CE0002115310541F42DB73EB7409104015091D3
:100CF0000501241B350BE091DC01F091DD01E217C9
:100D0000F307A0F42E1B3F0B2817390778F0AC012E
:100D10004E5F5F4F2417350748F04E0F5F1F50930B
:100D2000DD014093DC01819391939FCFF0E0E0E0FF
:100D30009CCFCF93DF930097E9F0FC0132971382A9
:100D40001282A091DE01B091DF01ED0130E020E0E0
:100D50001097A1F420813181820F931F2091DC0133
:100D60003091DD012817390709F061C0F093DD01EA
:100D7000E093DC01DF91CF910895EA01CE17DF0700
:100D8000E8F54A815B819E0141155105B1F7E90102
:100D9000FB83EA8349915991C40FD51FEC17FD07D6
:100DA00061F4808191810296840F951FE9019983F6
:100DB0008883828193819B838A83F0E0E0E01296AE
:100DC0008D919C9113970097B9F52D913C911197B6
:100DD000CD010296820F931F2091DC013091DD013D
:100DE0002817390739F6309751F51092DF01109224
:100DF000DE01B093DD01A093DC01BCCFD383C283BD
:100E000040815181840F951FC817D90761F44E5F47
:100E10005F4F88819981480F591F518340838A8190
:100E20009B81938382832115310509F0B0CFF09324
:100E3000DF01E093DE019ECFFD01DC01C0CF138214
:100E40001282D7CFB0E0A0E0E8E2F7E00C94C20550
:100E50008C01009751F4CB010E94FD058C01C80163
:100E6000CDB7DEB7E0E10C94DE05FC01E60FF71F1D
:100E70009C0122503109E217F30708F49DC0D90103
:100E8000CD91DC911197C617D70798F0C530D105E1
:100E900030F3CE0104978617970708F3C61BD70BCC
:100EA0002297C193D1936D937C93CF010E949906B1
:100EB000D6CF5B01AC1ABD0A4C018C0E9D1EA091D1
:100EC000DE01B091DF01512C412CF12CE12C109767
:100ED00031F58091DC019091DD018815990509F0CB
:100EE0005CC04616570608F058C0809100019091EA
:100EF0000101009741F48DB79EB7409104015091D4
:100F00000501841B950BE817F90708F055C0F0930D
:100F1000DD01E093DC01F90171836083A0CF8D9145
:100F20009C91119712966C90129713967C90139740
:100F3000A815B90559F56C0142E0C40ED11CCA14BC
:100F4000DB0420F1AC014A195B09DA01129615970E
:100F500080F06282738251834083D9016D937C93C8
:100F6000E114F10471F0D7011396FC93EE931297FC
:100F700076CF22968C0F9D1FF90191838083F30118
:100F8000EFCFF093DF01E093DE0169CF48165906F9
:100F900008F42C017D01D3019ACFCB010E94FD05FD
:100FA0007C01009749F0AE01B8010E94E707C80133
:100FB0000E949906870153CF10E000E050CF9111B5
:100FC000089581568A5108F4805285580895FB018E
:100FD000DC0102C001900D9241505040D8F70895B5
:100FE000FC018191861721F08823D9F7992708956C
:100FF0003197CF010895FB01DC018D91019080199B
:101000000110D9F3990B0895FB01DC0101900D92B9
:0A1010000020E1F70895F894FFCFE7
:10101A000000E001800000000000B301D3000001DD
:10102A00000271010F0163010200030004000500C0
:10103A000600070008000900484947480031004FE8
:06104A004B3A000D0A0004
:00000001FF
